:020000040000FA
:020000000029D5
:040002000034003492
:08000800A400030EA5000B1D6E
:100010000E289E3081000B110E212821250E830011
:10002000A40E240E09000F398207C034F934243499
:10003000B03499341234023478340034183408342B
:0A00400003344634213406340E3434
:100200004E213B210129261C07292610080026140F
:1002100008000808A700080EA80008008601261894
:10022000172928081320870006140321080027082F
:10023000132087008614032108000508080203190B
:100240002221080085017F2109147F2189010800EE
:100250008521861F3221061F2E210800061F2E2908
:1002600088030800861F3229880A08000030A2008F
:1002700022080807080009211D2103193B294121F3
:100280000800850A442108002830A1000B119E3087
:1002900081000B1D4929A10B462908008312031375
:1002A00085018601870188018901031183160317DF
:1002B000880189018316031385018601C0308600F9
:1002C000FF3095006400573081000B11870100302A
:1002D000870088010030880089018B178B160B116D
:1002E0008312831203138701850186018801890126
:1002F00008000530A3007F21A30B7B290800FF30F5
:10030000A1008521A10B81290800FF30A000A00BCE
:040310008729080031
:02400E00D420BC
:02401000FF3F70
:00000001FF
