:020000040000FA
:020000000029D5
:040002000034003492
:100200008312031385018601870188018901831602
:10021000031788018901831603138501F0308500D7
:1002200086018609FF30950081138701E030870041
:100230008801F0308800831203138701850186014D
:1002400088014521861E3521061E3921861F3D2144
:10025000061F4121861D2F21452145212129861D6B
:100260002F290508080787000800861E3529850AFA
:100270000800061E392985030800861F3D29880AC3
:100280000800061F412988030800FF30A000A00BCA
:0402900047290800F2
:02400E00D420BC
:02401000FF3F70
:00000001FF
