:020000040000FA
:020000000029D5
:040002000034003492
:080008008B13AD00030EAE00E6
:100010000B1917200C1B1E208C1862208C1A3520FF
:100020000C182E202E0E8300AD0E2D0E0900F83078
:1000300081000B113C2107210221080023182728E9
:100040001E08B7000C1380219F14231408001E08FB
:10005000B8000C137C219F14231008000B308F0074
:10006000DC300E300C106021080005304602031908
:100070005D2804304602031959280330460203194B
:10008000552802304602031951280130460203194F
:100090004D281A08BF00C60A08001A08C000C60A80
:1000A00008001A08C100C60A08001A08C200C60AD9
:1000B00008001A08C300C60A08001A08C400C601CE
:1000C0002A1408008C100C1A0C2108000F39820722
:1000D00030343134323433343434353436343734E4
:1000E000383439344134423443344434453446346A
:1000F0000F3982078834EB344C3449342B341934AB
:100100001834CB3408340B34023430349434603433
:040110001434163459
:10020000842101293708BB00370EBC0008003808DC
:10021000BD00380EBE00080005302602031938293B
:100220000430260203192E2903302602031933292C
:100230000230260203192A29013026020319252932
:100240003C0866209900A60A08003B086620990031
:10025000A60A08002C309900A60A08003D0866206E
:100260009900A60A08003E0866209900A60A080020
:100270000A309900A60108008510051185110512A4
:10028000AF1851292F184B29AF1433087820880054
:1002900005162F14080034087820880085142F10C4
:1002A00008002F185A29AF10350878208800051546
:1002B0002F14080036087820880085152F100800B4
:1002C0002A18632908002A102C304102031D7529C1
:1002D00030303F02B30030304002B60030304202CE
:1002E000B50030304302B4000800BF01C001C101B5
:1002F000C201C301C4010800831203131F120800C6
:10030000831203131F16080083120313850186014D
:100310008701880189010311FF30920090011014B8
:1003200090109011101690168316031789018316EA
:100330000313850186018701880189010C178C163A
:10034000640057308100831603130C148C148B1631
:100350000B1714309200831603139F0183160313A7
:1003600005148516831203139F171F149F141F1360
:100370009F129F111F1183160317081488168316E6
:1003800003131813181218158316031787118316F1
:100390000313193099009A019816831203139817C2
:1003A00018131816831203138B170B110C108C10D3
:1003B00087018501860188018901A001A201A301AD
:1003C000A401A501A601A701A801A901AA01AB01E9
:1003D000AC01B301B401B501B601A101B701B80187
:1003E000B901BA01BB01BC01BD01BE01BF01C00121
:0E03F000C101C201C301C401C501C60108005C
:02400E00D420BC
:02401000FF3F70
:00000001FF
