:020000040000FA
:020000000029D5
:040002000034003492
:080008008B13AB00030EAC00EA
:100010000B1917200C181D208C1824200C1B2A20CB
:100020000C1A2F202C0E8300AB0E2B0E0900F8307B
:1000300081000B110221262108000B308F00DC30DB
:100040000E300C10A10A08008C10A40A14302402EF
:10005000031D08001E0886000C139F1408000608E4
:10006000990008000F3982078834EB344C34493446
:100070002B3419341834CB3408340B340234303474
:0800800094346034143416348A
:100200002B2101298510051185110512AD1817291B
:100210002D181129AD1431083220880085152D14B0
:10022000080032083220880005162D1008002D180D
:100230002029AD1033083220880085142D140800C1
:1002400034083220870005152D1008000608B1007B
:10025000060EB20008008312031385018601870190
:10026000880189010311FF30920090011014901051
:1002700090111016901683160317880189018316B2
:100280000313850186018701880189010C170C166B
:10029000640057308100831603130C148C148B16E2
:1002A0000B17C4309200831603139F0183160313A8
:1002B00005148316031708148312031383309F0059
:1002C0001F149F14831203138B170B118316031330
:1002D00003309A00403099008316031318158316D3
:1002E0000317871583160313181283120313981725
:1002F0008316031318139816831203138B170B110D
:100300000C108C1087018501860188018901A101EB
:10031000A201A301A401A501A601A701A801A901A9
:0C032000AA01B101B201B301B401080050
:02400E00D420BC
:02401000FF3F70
:00000001FF
