:020000040000FA
:020000000029D5
:040002000034003492
:080008008B13AC00030EAD00E8
:100010000B1915200C1B1B208C1835208C1A2B203B
:100020002D0E8300AC0E2C0E0900F83081000B1150
:10003000022126210800221824284B211E08B60080
:100040000C139F14221408004F211E08B7000C1334
:100050009F14221008002B1831281A08B8002B14FE
:1000600008001A08B9002B1008008C100C1A2F2158
:1000700008000F3982078834EB344C3449342B3470
:1000800019341834CB3408340B34023430349434FB
:0600900060341434163444
:10020000532101298510051185110512AE181729F2
:100210002E181129AE1432083920880005162E1424
:10022000080033083920880085142E1008002E1885
:100230002029AE1034083920880005152E14080036
:1002400035083920880085152E1008003808B200BE
:10025000380EB3003908B400390EB5000800033079
:100260002502031947290230250203193F290130CD
:1002700025020319432936089900A50A0800370802
:100280009900A50A08002C309900A50A08000A3038
:100290009900A5010800831203131F12080083129E
:1002A00003131F16080083120313850186018701BB
:1002B000880189010311FF30920090011014901001
:1002C00090111016901683160317890183160313D5
:1002D000850186018701880189010C178C1664004D
:1002E00057308100831603130C148C148B160B17D4
:1002F00014309200831603139F0183160313051411
:100300008516831203139F171F149F141F139F1228
:100310009F111F11831603170814881683120313E5
:100320008B170B1183160313181318121815831645
:100330000317871183160313193099009A01981631
:1003400083120313981718131816831203138B17AD
:100350000B110C108C108701850186018801890121
:10036000A101A201A301A401A501A601A701A80161
:10037000A901AA01AB01B201B301B401B501A00109
:0A038000B601B701B801B901080089
:02400E00D420BC
:02401000FF3F70
:00000001FF
