:020000040000FA
:020000000029D5
:040002000034003492
:080008008B13AC00030EAD00E8
:100010000B1915200C1A39200C1B1B208C1A3C20A4
:100020002D0E8300AC0E2C0E0900F83081000B1150
:10003000022126210800A21C3328221C29282F2156
:100040001E08B7000C1A39200C139F142210A2109E
:10005000080033211E08B7000C1A39200C139F1416
:100060002214A21008000C1A39200C139F14A21499
:1000700008003708990008001A08860008008C104C
:100080000C1B1B2008000F3982078834EB344C34DA
:1000900049342B3419341834CB3408340B3402343B
:0A00A0003034943460341434163404
:10020000372101298510051185110512AE1817290E
:100210002E181129AE1432084320880005162E141A
:10022000080033084320880085142E1008002E187B
:100230002029AE1034084320880005152E1408002C
:1002400035084320880085152E1008003608B200B6
:10025000370EB3003708B400370EB500080083121C
:1002600003131F120800831203131F1608008312C2
:100270000313850186018701880189010311FF307D
:100280009200900110149010901110169016831681
:1002900003178901831603138501860187018801ED
:1002A00089010C168C1664005730810083160313E5
:1002B0000C148C148B160B17FF309200831603134B
:1002C0009F018316031305148516831203139F17CA
:1002D0001F149F141F139F129F111F1183160317C2
:1002E00008148816831203138B170B11831603133C
:1002F0001813181218158316031787118316031382
:10030000193099009A01981683120313981718133D
:100310001816831203138B170B110C108C10870106
:100320008501860188018901A101A201A301A4011F
:10033000A501A601A701A801A901AA01AB01B2016B
:0E034000B301B401B501A001B601B701080078
:02400E00D420BC
:02401000FF3F70
:00000001FF
