:020000040000FA
:020000000029D5
:040002000034003492
:080008008B13AB00030EAC00EA
:100010000B1913200C1818208C181F202C0E83008D
:10002000AB0E2B0E0900F83081000B1102210800E5
:100030000B308F00DC300E300C10A10A08008C1041
:10004000A40A14302402031D08000F3982078834E3
:10005000EB344C3449342B3419341834CB34083451
:0E0060000B34023430349434603414341634CB
:10020000262101298510051185110512AD18172920
:100210002D181129AD1431082520880085152D14BD
:10022000080032082520880005162D1008002D181A
:100230002029AD1033082520880085142D140800CE
:1002400034082520870005152D100800831203139C
:10025000850186018701880189010311FF30920021
:100260009001101490109011101690168316031719
:10027000880189018316031385018601870188019E
:100280008901640057308100831603130C148C1409
:100290008B160B17C4309200831203138B170B11AC
:1002A0000C108C1087018501860188018901A1014C
:1002B000A201A301A401A501A601A701A801A9010A
:0C02C000AA01B101B201B301B4010800B1
:02400E00D420BC
:02401000FF3F70
:00000001FF
