:020000040000FA
:020000000029D5
:040002000034003492
:080008008B13A700030EA800F2
:100010000B1912200C1B1820280E8300A70E270E88
:100020008B170900F83081000B110721022108000D
:100030001E0886000C139F1408000F3982078834AD
:10004000EB344C3449342B3419341834CB34083461
:0E0050000B34023430349434603414341634DB
:10020000212101290608AB00060EAC0008000811E8
:100210008810291811292C081D20870088142914FA
:1002200008002B081D20870008152910080005303C
:10023000A1000B11F83081000B1D1C29A10B1929FD
:100240000800831203138501860187018801890153
:1002500003110C108C109201FF30920090011014C9
:1002600090109011101690168316031789018316AB
:10027000031385018601D730810087018801890138
:100280000C17FF309200831603130C148C148B167A
:100290000B17C4309200831603139F0183160313B8
:1002A00005148316031708148312031383309F0069
:1002B0001F149F14831203138B170B118312031344
:1002C000870185018601880189019E010C17AD0116
:1002D000A401A001A201A301A501A601AB01AC01EB
:0402E000AE01080063
:02400E00D420BC
:02401000FF3F70
:00000001FF
