:020000040000FA
:020000000029D5
:040002000034003492
:080008008B13A700030EA800F2
:100010000B1912208C1A1820280E8300A70E270E09
:100020008B170900F83081000B110721022108000D
:100030001A08860008000F3982078834EB344C34E4
:1000400049342B3419341834CB3408340B3402348B
:0A0050003034943460341434163454
:10020000172101290608AB00060EAC0008000511F5
:100210008510291811292C081B2088008514291401
:1002200008002B081B2088000515291008008316DC
:10023000031789018316031385018601D7308100D6
:100240008701880189010C17FF3092008316031380
:100250008C16831603130C148C148B160B17C430D6
:100260009200831603139F0183160313051483164C
:10027000031708148312031383309F001F149F1465
:10028000831203138B170B118316031303309A0089
:10029000403099008316031318158316031787152A
:1002A0008312031398178316031318128312031370
:1002B000181318168312031387018501860188011C
:1002C00089019E010C17AD01A401A001A201A301A7
:0C02D000A501A601AB01AC01AE010800C5
:02400E00D420BC
:02401000FF3F70
:00000001FF
