:020000040000FA
:020000000029D5
:040002000034003492
:080008008B13AD00030EAE00E6
:100010000B1913200C1818208C1828202E0E830082
:10002000AD0E2D0E0900F83081000B1126210800BD
:100030000B308F00DC300E300C10A20A7830220218
:10004000031D08003B08013C03184A21A2010800D7
:100050008C10A60A14302602031D08001024A601E5
:1000600007303B020319D62308000F398207883472
:10007000EB344C3449342B3419341834CB34083431
:0E0080000B34023430349434603414341634AB
:10020000152541180729861B092941140929411878
:10021000182407303B020319022D06303B02031954
:10022000E02C05303B020319C42C04303B020319B7
:10023000A82C03303B0203198C2C02303B0203191B
:10024000702C01303B020319652C5A2C08108810C1
:1002500008118811AF183B292F183529AF143C0815
:100260003520870088152F1408003D0835208700A9
:1002700008142F1008002F184429AF103E0835200D
:10028000870008152F1408003F08352087008814C0
:100290002F100800A00A0A302002031D0800A00148
:1002A000A40A06302402031D0800A401023036020D
:1002B000031D6229B50A04303502031D0800B5018B
:1002C000B6016A29B50A0A303502031D0800B501D6
:1002D000B60A080001303A02031D772903303902BB
:1002E000031D7E29BA010130B900A70008000A30B9
:1002F0003902031D7E29B901BA0A08000C30270211
:100300000319AE290B3027020319DC290A30270212
:100310000319AE29093027020319DC290830270206
:100320000319AE29073027020319AE290630270228
:100330000319DC29053027020319AE2904302702EE
:100340000319DC29033027020319AE2902302702E2
:100350000319C529013027020319AE2903303802D9
:10036000031DBD29B70A02303702031D0800013002
:10037000B700B801B90AA70A0800B70A0A3037025D
:10038000031D0800B701B80A080002303802031D37
:10039000D429B70A09303702031D08000130B7001D
:1003A000B801B90AA70A0800B70A0A303702031DC4
:1003B0000800B701B80A080003303802031DE62917
:1003C0000130B700B801B90AA70A0800B70A0A3015
:1003D0003702031D0800B80AB7010800A00A0A3056
:1003E0002002031D0800A001A40A063024020319FC
:1003F000A401080002303602031D062AB50A0430A3
:100400003502031D0800B501B6010800B50A0A301F
:100410003502031D0800B501B60A08000C3027029A
:1004200003193E2A0B30270203196B2A0A302702D0
:1004300003193E2A0930270203196B2A08302702C4
:1004400003193E2A0730270203193E2A06302702E5
:1004500003196B2A0530270203193E2A04302702AC
:1004600003196B2A0330270203193E2A02302702A0
:100470000319562A0130270203193E2A0330380295
:10048000031D4B2AB70A02303702031D0800013052
:10049000B700B8010800B70A0A303702031D080088
:1004A000B701B80A0800A514C00A080002303802D3
:1004B000031D632AB70A09303702031D0800013003
:1004C000B700B8010800B70A0A303702031D080058
:1004D000B701B80A080003303802031D732A01303F
:1004E000B700B8010800B70A0A303702031D080038
:1004F000B80AB701080001303A02031D8B2AA70A87
:10050000B90A03303902031D0800BA010130B900ED
:100510000130A7000800A70AB90A0A303902031DF2
:100520000800B901BA0A08000030200203199A2A0B
:10053000A00308000930A000003024020319A22AF9
:10054000A40308000530A400080000303602031997
:10055000C02A003035020319AF2AB503080009305C
:10056000B500003036020319B82AB603A803080004
:100570000130B60008000130280203199E2A00301D
:1005800035020319C52AB50308000330B500003051
:1005900036020319CD2AB60308000230B600A80AB5
:1005A0000800013027020319032B00303A02031917
:1005B000F12A003039020319E02AA703B903080021
:1005C0000930B90000303A020319E92ABA03A90335
:1005D00008000030BA000800013029020319CE2AB1
:1005E000013039020319F72AA703B90B08000230BA
:1005F000B90000303A020319FF2ABA03080001309B
:10060000BA00A90A08000C30A700D52A0B3027022F
:100610000319322B0A30270203198A2B09302702CB
:1006200003198A2B083027020319322B07302702BF
:100630000319322B0630270203198A2B05302702B3
:100640000319322B0430270203198A2B03302702A7
:100650000319322B0230270203195E2B01302702C7
:100660000319322B0030380203194D2B00303702AA
:1006700003193C2BB70B08000930B70000303802D3
:100680000319452BB803AA0308000230B80008007C
:1006900001302A0203192B2B003037020319522B89
:1006A000B70B08000130B7000030380203195A2B8D
:1006B000B80308000330B800AA0A08000030380266
:1006C0000319792B003037020319682BB70B080088
:1006D0000930B700003038020319712BB803AB039F
:1006E00008000130B800080001302B020319572B15
:1006F0000030370203197E2BB70B08000830B70013
:10070000003038020319862BB80308000230B80005
:10071000AB0A0800003038020319A52B003037025D
:100720000319942BB70B08000930B70000303802CA
:1007300003199D2BB803AC0308000230B800080071
:1007400001302C020319832B003037020319AA2B26
:10075000B70B08000030B700003038020319B22B85
:10076000B80308000330B800AC0A08003C30C800E9
:10077000C20A0A304202031D0800C201C30A063041
:100780004302031D0800C3010130C20008003C30D1
:10079000C800C40A0A304402031D0800C401C50A87
:1007A0000A304502031D0800C5010800420843073E
:1007B000C60044084507C700460847070319012C2F
:1007C000003042020319E62BC20308000930C200C0
:1007D000003043020319EE2BC30308000530C300A9
:1007E000003044020319F62BC40308000930C4008A
:1007F000003045020319FE2BC50308000930C5006F
:100800000800003048020319072CC8030824080018
:1008100049180D2C09154914080009114910080040
:100820003018152C88173014080088133010080071
:10083000861F0800411007303B02031D212CBB011D
:100840000800BB0A0800061F0800C110EE210800BE
:10085000061D08004111FA210800061F0800C111F9
:100860000E220800061D080041127B220800061F08
:100870000800C11194220800061D0800C110A5221D
:100880000800061F0800C111D1220800061D08003B
:10089000C11006230800061F0800C110B623080077
:1008A000061D08004111C7230800061F0800C110DB
:1008B000C8010800013085002408BC002008BD00E4
:1008C0003508BE003608BF0001290230850038080F
:1008D000BC003708BD003908BE003A08BF00012936
:1008E000033085002408BC002008BD003508BE0088
:1008F0003608BF00C118802C061B832CC114832C22
:10090000C1182324832C4119892C0619012941156A
:100910000129411928240129043085003808BC0028
:100920003708BD003908BE003A08BF00C1199C2C29
:10093000061B9F2CC1159F2CC1192D249F2C411AD9
:10094000A52C0619012941160129411A3224012931
:10095000053085002408BC002008BD003508BE0015
:100960003608BF00C118B82C0619BB2CC114BB2C0B
:10097000C1183C24BB2CC119C12C061B0129C1156F
:100980000129C11937240129063085003808BC0027
:100990003708BD003908BE003A08BF00C118D42C82
:1009A0000619D72CC114D72CC1184624D72CC1192D
:1009B000DD2C061B0129C1150129C119412401297A
:1009C000073085004308BC004208BD004408BE0053
:1009D0004508BF0000304802031DF02C0130C20062
:1009E0004119F62C0619F92C4115F92C41195024FE
:1009F000F92CC118FF2C061B0129C1140129C118AB
:100A00004B240129073085004308BC004208BD0083
:100A10004408BE004508BF00C118122D061B01295D
:100A2000C1140129C118552401298312031385011A
:100A300086018701880189010311FF30920090012E
:100A40001014901090111016901683160317880139
:100A5000890183160313850186018609FF309500FD
:100A60006400870100308700880100308800890118
:100A7000640057308100831603130C148C148B16FA
:100A80000B17C4309200831203138B170B110C1039
:100A90008C10831203138701850186018801890167
:100AA000B301A401A001A201A301A501A601A70110
:100AB0000130A700A801A901AA01AB01AC01B10155
:100AC000B201AF01B501B601B801B7010130B700FD
:100AD000BA01B9010130B900C001BB01BC01BD01BF
:100AE000BE01BF01C101C601C701C2010130C20080
:100AF000C301C401C501C8013C30C800C9010800D8
:02400E00D420BC
:02401000FF3F70
:00000001FF
