:020000040000FA
:020000000029D5
:040002000034003492
:080008008B13A700030EA800F2
:100010000B1914200C1819208C182620280E830088
:10002000A70E270E8B170900F83081000B110D2148
:1000300008000B308F00DC300E300C10A20A0230AA
:100040002202031D08002421A2010800C4309200EE
:1000500091018C10A60A64302602031D0800372186
:10006000A60108000F3982078834EB344C34493438
:100070002B3419341834CB3408340B340234303474
:0800800094346034143416348A
:100200004B210129291C062929100800291408005E
:100210002D08AB002D0EAC0008000810081129189D
:1002200017292C08322087000815022108002B0806
:1002300032208700081402210800A00A20082407A1
:10024000AD00AD03082108001D21A30A0A302302D6
:10025000031D0800A301A0011030A407A50A0A305D
:100260002502031D0800A501AD01A40108002A18FC
:100270003D29881488152A140800881088112A102E
:1002800008002830A1000B119E3081000B1D46296B
:10029000A10B4329080083120313850186018701FE
:1002A0008801890103110C108C109201FF3092001B
:1002B00090011014901090111016901683160317C9
:1002C000880189018316031385018601C0308600E9
:1002D000FF309500640057308100870100308700AF
:1002E0008801003088008901640057308100FF30A8
:1002F0009200831603130C148C148B160B17C43046
:100300009200831203138B170B11831203138701BF
:100310008501860188018901AD01A401A001A20126
:0C032000A301A501A601AB01AC0108007F
:02400E00D420BC
:02401000FF3F70
:00000001FF
