:020000040000FA
:1000000000290F398207C034F9342434B0349934CC
:10001000123402347834003418340834033446344B
:06002000213406340E3409
:04002600003400346E
:1002000041212F21012905080802031908210800AE
:1002100085016F2109146F2189010800861F1721AC
:10022000061F13210800061F132988030800861FD4
:100230001729880A080008080120870008000030F4
:10024000A200220808070800850A372108001B21A0
:100250000E2103211F2103192729242108001B2116
:100260000E2103211F2103198501272108000A30CF
:10027000A1000B113D3081000B1D3C29A10B392938
:100280000800831203138501860187018801890113
:100290008316031788018901831603138501F03043
:1002A00085008601C0308600FF309500640057301D
:1002B00081000B118701003087008801F030880031
:1002C0008901831203138701850186018801890151
:1002D00008000530A3006F21A30B6B290800FF3035
:1002E000A1007521A10B71290800FF30A000A00B0F
:0402F0007729080062
:02400E00D420BC
:02401000FF3F70
:00000001FF
