:020000040000FA
:020000000029D5
:040002000034003492
:080008008B13AD00030EAE00E6
:100010000C1B17200B1911202E0E8300AD0E2D0E78
:100020000900D8308100022105210B110800231896
:1000300020281E08B5000C130A219F142314080061
:100040001E08B6000C1308219F14231008000F3956
:1000500082078834EB344C3449342B341934183447
:10006000CB3408340B3402343034943460341434D8
:02007000163444
:100200000C21012935089500080036089B000800DC
:100210001F1208001F1608008312031385018601B0
:10022000870188018901031183120313FF309200B3
:10023000831603178901880183160313850186013C
:1002400087018801890164005730810083160313F8
:100250008B160B170C17831603139F0183160313BA
:1002600005148516831203139F171F149F141F1361
:100270009F129F111F1183160317081488168316E7
:100280000313FF309200831203139713171397126F
:1002900017129715171597101710831203139D1235
:1002A0001D129D151D159D141D14831203138B170C
:1002B0000B1187018501860188018901A001A20136
:1002C000A301A401A501A601A701A801A901AA01F2
:1002D000AB01AC01B101B201B301B401B501B6018A
:0202E000080014
:02400E00D420BC
:02401000FF3F70
:00000001FF
