:020000040000FA
:020000000029D5
:040002000034003492
:080008008B13AD00030EAE00E6
:100010000B1913200C1824208C1A21202E0E83007B
:10002000AD0E2D0E090031181B28330881008514F0
:1000300031140B11080034088100851031100B11A8
:1000400008001A08B50008000B308F00DC300E30B5
:100050000C100E216B21B61C2E280421B6100800AE
:100060000F39820730343134323433343434353458
:1000700036343734383439344134423443344434F8
:040080004534463489
:10020000792136182F210129FA30B300B830B40013
:100210000800FE30B300B430B400080030303502BE
:10022000B5000030350203195F290130350203198A
:1002300062290230350203190929033035020319F6
:100240000429043035020319361405303502031928
:100250003A290800FF30A000A00B2C2908008817BD
:1002600065218813081765210813881665218812EF
:10027000361008000430370203195A2903303702B8
:100280000319562902303702031952290130370267
:1002900003194E2901308600B70A08000330860092
:1002A000B70A080007308600B70A08000F3086003A
:1002B000B70A08001F308600B701B61408003614CC
:1002C00004210800860109210800FF30A2002A212C
:1002D000A20B67290800381871290518080038147E
:1002E0000800381874210800051C080038103A214D
:1002F00008008312031385018601870188018901A3
:100300000311FF30920090011014901090111016FC
:10031000901683160317890188018316031385013C
:10032000051486018701880189018C166400D73085
:100330008100831603130C148B160B1714309200D4
:100340008316031318131812181583160317871131
:1003500083160313193099009A0198168312031318
:10036000981718131816831203138B170B110C1000
:100370008C1087018501860188018901A001A201F5
:10038000A301A401A501A601A701A801A901AA0131
:10039000AB01AC01B201B101B301B401B501B601C9
:0603A000B701B8010800DE
:02400E00D420BC
:02401000FF3F70
:00000001FF
