:020000040000FA
:020000000029D5
:040002000034003492
:080008008B13AD00030EAE00E6
:100010000B1915200C182E208C1A23208C18402028
:100020002E0E8300AD0E2D0E090031181D28330849
:100030008100851431140B110800340881008510EB
:1000400031100B110800361A29281A08B500361687
:1000500008001A08B900B616361208000B308F00D7
:10006000DC300E3012210C10B61C38280D21B610D1
:10007000A20A02302202031D3F28C421A201080067
:100080008C100C1A0B22942108000F39820730348F
:10009000313432343334343435343634373438341C
:0E00A000393441344234433444344534463418
:100200001922361850213D18F121BD18DF2101298E
:10021000FA30B300B830B4000800FE30B300B43098
:10022000B4000800B61A15290800B6120A303902BF
:10023000031D462930303502B50000303502031960
:1002400084290130350203198A2902303502031945
:100250000D2903303502031908290430350203192A
:1002600049290530350203195C2906303502031986
:100270003E2907303502031940290800B617080047
:10028000B613A101BA01BB01BC010800B501B90157
:10029000080036140800FF30A000A00B4D2908000C
:1002A00088168E2108178E21081388128E21881730
:1002B0008E21881336100800361D080004303702DE
:1002C00003197E290330370203197A2902303702D5
:1002D000031976290130370203197229013086008B
:1002E000B70A080003308600B70A08000730860006
:1002F000B70A08000F308600B70A08001F308600D2
:10030000B701B61436110800B70186013615361448
:10031000082108003D140D2136110800FF30A2000D
:100320004B21A20B90290800053026020319C02991
:10033000043026020319B629033026020319BB290B
:10034000023026020319B229013026020319AD2911
:100350003C0845209900A60A08003B084520990062
:10036000A60A08002C309900A60A0800210845209A
:100370009900A60A08003A0845209900A60A080034
:100380000A309900A6010800B61F0800A10A0A3029
:100390002102031D0800A101BA0A06303A02031D1A
:1003A0000800BA01BB0A0A303B02031D0800BB016A
:1003B000BC0A0A303C02031D0800BC010800BD1045
:1003C0008B130030831203178D00831603178C13D1
:1003D0000C14831203170C088312031386008B1767
:1003E00008003D108312031700308D0083120313A1
:1003F0000608831203178C00831603178C130C1541
:100400008B1355308D00AA308D008C148B170C1176
:100410008312031308003818112A0518080038142D
:100420000800381814220800051C080038105C2148
:100430000800831203138501860187018801890161
:100440000311FF30920090011014901090111016BB
:1004500090168316031789018801831603138501FB
:10046000051486018701880189018C166400D73044
:100470008100831603130C148C148B160B17143085
:1004800092008316031318131812181583160317F6
:10049000871183160313193099009A019816831255
:1004A0000313981718131816831203138B170B11C5
:1004B0000C108C1087018501860188018901A0013B
:1004C000A201A301A401A501A601A701A801A901F8
:1004D000AA01AB01AC01B201B101B301B401B50194
:1004E000B601B701B801B901A101BA01BB01BC0154
:0604F000BD01BD1408006F
:02400E00D420BC
:02401000FF3F70
:00000001FF
