:020000040000FA
:020000000029D5
:040002000034003492
:080008008B13AD00030EAE00E6
:100010000B1915200C182E208C1A23208C18402028
:100020002E0E8300AD0E2D0E090031181D28330849
:100030008100851431140B110800340881008510EB
:1000400031100B110800361A29281A08B500361687
:1000500008001A08B900B616361208000B308F00D7
:10006000DC300E300E210C10B61C38280921B610D9
:10007000A20A02302202031D3F28BE21A20108006D
:100080008C100C1AD9218E2108000F3982073034C8
:10009000313432343334343435343634373438341C
:0E00A000393441344234433444344534463418
:10020000E72136184C210129FA30B300B830B40088
:100210000800FE30B300B430B4000800B61A11294B
:100220000800B6120A303902031D42293030350267
:10023000B500003035020319802901303502031959
:1002400084290230350203190929033035020319C4
:1002500004290430350203194529053035020319F4
:1002600058290630350203193A2907303502031997
:100270003C290800B6170800B613A101BA01BB015A
:10028000BC010800B501B901080036140800FF30B0
:10029000A000A00B4929080088168821081788218A
:1002A00008138812882188178821881336100800BF
:1002B000361D08000430370203197A29033037024B
:1002C00003197629023037020319722901303702E7
:1002D00003196E2901308600B70A08000330860032
:1002E000B70A080007308600B70A08000F308600FA
:1002F000B70A08001F308600B701B614361108008F
:10030000361536140421080086010921361108002B
:10031000FF30A2004721A20B8A29080005302602DF
:100320000319BA29043026020319B0290330260222
:100330000319B529023026020319AC29013026021F
:100340000319A7293C0845209900A60A08003B0884
:1003500045209900A60A08002C309900A60A08003A
:10036000210845209900A60A08003A08452099006E
:10037000A60A08000A309900A6010800B61F080066
:10038000A10A0A302102031D0800A101BA0A0630A1
:100390003A02031D0800BA01BB0A0A303B02031DE2
:1003A0000800BB01BC0A0A303C02031D0800BC0166
:1003B00008003818DF290518080038140800381814
:1003C000E2210800051C080038105821080083129B
:1003D0000313850186018701880189010311FF301C
:1003E0009200900110149010901110169016831620
:1003F00003178901880183160313850105148601FB
:100400008701880189018C166400D730810083162A
:1004100003130C148C148B160B17143092008316D4
:100420000313181318121815831603178711831650
:100430000313193099009A01981683120313981721
:1004400018131816831203138B170B110C108C1032
:1004500087018501860188018901A001A201A3010C
:10046000A401A501A601A701A801A901AA01AB0148
:10047000AC01B201B101B301B401B501B601B701DC
:0E048000B801B901A101BA01BB01BC0108001D
:02400E00D420BC
:02401000FF3F70
:00000001FF
