:020000040000FA
:020000000029D5
:040002000034003492
:080008008B13A700030EA800F2
:100010000C1B12200C1A1720280E8300A70E270E87
:100020008B1709001E0886000C139F140800060891
:04003000990008002B
:1002000002210129831203138501860187018801D8
:10021000890103110C108C109201FF3092009001A3
:100220001014901090111016901683160317890160
:100230008316031385018601D73081008701880169
:1002400089010C170C16FF309200831603130C144F
:100250008C148B160B17C4309200831603139F0166
:10026000831603130514831603170814831203134C
:1002700083309F001F149F14831203138B170B11DD
:100280008316031303309A0040309900831603133A
:100290001815831603178715831603131812831274
:1002A0000313981783160313181398168312031356
:1002B000870185018601880189019E010C17AD0126
:1002C000A401A001A201A301A501A601AB01AC01FB
:0402D000AE01080073
:02400E00D420BC
:02401000FF3F70
:00000001FF
