:020000040000FA
:020000000029D5
:040002000034003492
:080008008B13A700030EA800F2
:100010000B1912200C1B1820280E8300A70E270E88
:100020008B170900F83081003C2109210B110800D1
:100030001E08AB000C139F1408000F398207883488
:10004000EB344C3449342B3419341834CB34083461
:0E0050000B34023430349434603414341634DB
:1002000060211221061C05290129061C052923212C
:1002100001292B08B1002B0EAE003208AF00320EC0
:10022000B00008008B130030831203178D00831673
:1002300003178C130C14831203170C088312031377
:10024000B2008B1708008312031700308D00831251
:1002500003132B08831203178C00831603178C13C8
:100260000C158B1355308D00AA308D008C148B1714
:100270000C11831203130800851005118511051256
:10028000A918512929184B29A9142E081D208800C6
:100290000516291408002F081D2088008514291030
:1002A000080029185A29A91030081D2088000515B2
:1002B0002914080031081D20880085152910080020
:1002C00083120313850186018701880189010311C7
:1002D000831603178901831603138501860106140B
:1002E0005730810095011514640087018801890148
:1002F000831603138B160B170C17831603139F011A
:1003000083160313051483160317081483120313AB
:1003100083309F001F149F14831203138B170B113C
:1003200083120313870185018601880189019E01DB
:100330000C17AA01AD01A401A001A201A301A5010E
:10034000A601AC01AE01AF01B001B101AB01B20138
:020350000800A3
:02400E00D420BC
:02401000FF3F70
:00000001FF
